{"abi":[{"type":"function","name":"balanceOf","inputs":[{"name":"","type":"address","internalType":"address"}],"outputs":[{"name":"","type":"uint256","internalType":"uint256"}],"stateMutability":"view"},{"type":"function","name":"hasReceipt","inputs":[{"name":"","type":"address","internalType":"address"}],"outputs":[{"name":"","type":"bool","internalType":"bool"}],"stateMutability":"view"},{"type":"function","name":"mintFirstDepositReceipt","inputs":[{"name":"investor","type":"address","internalType":"address"},{"name":"scheduleId","type":"uint256","internalType":"uint256"},{"name":"metadataUri","type":"string","internalType":"string"}],"outputs":[{"name":"tokenId","type":"uint256","internalType":"uint256"}],"stateMutability":"nonpayable"},{"type":"function","name":"name","inputs":[],"outputs":[{"name":"","type":"string","internalType":"string"}],"stateMutability":"view"},{"type":"function","name":"nextTokenId","inputs":[],"outputs":[{"name":"","type":"uint256","internalType":"uint256"}],"stateMutability":"view"},{"type":"function","name":"ownerOf","inputs":[{"name":"","type":"uint256","internalType":"uint256"}],"outputs":[{"name":"","type":"address","internalType":"address"}],"stateMutability":"view"},{"type":"function","name":"scheduleIdOf","inputs":[{"name":"","type":"uint256","internalType":"uint256"}],"outputs":[{"name":"","type":"uint256","internalType":"uint256"}],"stateMutability":"view"},{"type":"function","name":"symbol","inputs":[],"outputs":[{"name":"","type":"string","internalType":"string"}],"stateMutability":"view"},{"type":"function","name":"tokenURI","inputs":[{"name":"tokenId","type":"uint256","internalType":"uint256"}],"outputs":[{"name":"uri","type":"string","internalType":"string"}],"stateMutability":"view"},{"type":"event","name":"Transfer","inputs":[{"name":"from","type":"address","indexed":true,"internalType":"address"},{"name":"to","type":"address","indexed":true,"internalType":"address"},{"name":"tokenId","type":"uint256","indexed":true,"internalType":"uint256"}],"anonymous":false}],"bytecode":{"object":"0x608060405260015f55348015610013575f80fd5b50610758806100215f395ff3fe608060405234801561000f575f80fd5b5060043610610090575f3560e01c806370a082311161006357806370a082311461018557806375794a3c146101a457806395d89b41146101ac578063c55798b0146101cf578063c87b56dd146101e2575f80fd5b806306fdde03146100945780630eee40c5146100e65780631b586e94146101185780636352211e14610145575b5f80fd5b6100d06040518060400160405280601e81526020017f43617368666c6f772050617274696369706174696f6e2052656365697074000081525081565b6040516100dd919061046d565b60405180910390f35b6101086100f43660046104d4565b60036020525f908152604090205460ff1681565b60405190151581526020016100dd565b6101376101263660046104f4565b60046020525f908152604090205481565b6040519081526020016100dd565b61016d6101533660046104f4565b60016020525f90815260409020546001600160a01b031681565b6040516001600160a01b0390911681526020016100dd565b6101376101933660046104d4565b60026020525f908152604090205481565b6101375f5481565b6100d06040518060400160405280600481526020016321a329a960e11b81525081565b6101376101dd36600461050b565b6101f5565b6100d06101f03660046104f4565b61037f565b5f6001600160a01b0385166102415760405162461bcd60e51b815260206004820152600d60248201526c2d22a927afa4a72b22a9aa27a960991b60448201526064015b60405180910390fd5b6001600160a01b0385165f9081526003602052604090205460ff161561029a5760405162461bcd60e51b815260206004820152600e60248201526d1053149150511657d3525395115160921b6044820152606401610238565b5f805490806102a88361059f565b909155505f81815260016020818152604080842080546001600160a01b0319166001600160a01b038c16908117909155845260029091528220805493945090929091906102f69084906105b7565b90915550506001600160a01b0385165f908152600360209081526040808320805460ff19166001179055838352600482528083208790556005909152902061033f838583610668565b5060405181906001600160a01b038716905f907fddf252ad1be2c89b69c2b068fc378daa952ba7f163c4a11628f55a4df523b3ef908290a4949350505050565b5f818152600160205260409020546060906001600160a01b03166103d25760405162461bcd60e51b815260206004820152600a6024820152691393d517d3525395115160b21b6044820152606401610238565b5f82815260056020526040902080546103ea906105e4565b80601f0160208091040260200160405190810160405280929190818152602001828054610416906105e4565b80156104615780601f1061043857610100808354040283529160200191610461565b820191905f5260205f20905b81548152906001019060200180831161044457829003601f168201915b50505050509050919050565b5f602080835283518060208501525f5b818110156104995785810183015185820160400152820161047d565b505f604082860101526040601f19601f8301168501019250505092915050565b80356001600160a01b03811681146104cf575f80fd5b919050565b5f602082840312156104e4575f80fd5b6104ed826104b9565b9392505050565b5f60208284031215610504575f80fd5b5035919050565b5f805f806060858703121561051e575f80fd5b610527856104b9565b935060208501359250604085013567ffffffffffffffff8082111561054a575f80fd5b818701915087601f83011261055d575f80fd5b81358181111561056b575f80fd5b88602082850101111561057c575f80fd5b95989497505060200194505050565b634e487b7160e01b5f52601160045260245ffd5b5f600182016105b0576105b061058b565b5060010190565b808201808211156105ca576105ca61058b565b92915050565b634e487b7160e01b5f52604160045260245ffd5b600181811c908216806105f857607f821691505b60208210810361061657634e487b7160e01b5f52602260045260245ffd5b50919050565b601f82111561066357805f5260205f20601f840160051c810160208510156106415750805b601f840160051c820191505b81811015610660575f815560010161064d565b50505b505050565b67ffffffffffffffff831115610680576106806105d0565b6106948361068e83546105e4565b8361061c565b5f601f8411600181146106c5575f85156106ae5750838201355b5f19600387901b1c1916600186901b178355610660565b5f83815260208120601f198716915b828110156106f457868501358255602094850194600190920191016106d4565b5086821015610710575f1960f88860031b161c19848701351681555b505060018560011b018355505050505056fea2646970667358221220e85df2f5679a5e76a8402f4b319f8106debbc14327970c9f741623c810586c5964736f6c63430008180033","linkReferences":{}},"methodIdentifiers":{"balanceOf(address)":"70a08231","hasReceipt(address)":"0eee40c5","mintFirstDepositReceipt(address,uint256,string)":"c55798b0","name()":"06fdde03","nextTokenId()":"75794a3c","ownerOf(uint256)":"6352211e","scheduleIdOf(uint256)":"1b586e94","symbol()":"95d89b41","tokenURI(uint256)":"c87b56dd"},"id":22}