{"abi":[{"type":"constructor","inputs":[{"name":"creator_","type":"address","internalType":"address"},{"name":"vault_","type":"address","internalType":"address"},{"name":"cadence_","type":"uint256","internalType":"uint256"},{"name":"paymentAmount_","type":"uint256","internalType":"uint256"},{"name":"startTime_","type":"uint256","internalType":"uint256"}],"stateMutability":"nonpayable"},{"type":"function","name":"cadence","inputs":[],"outputs":[{"name":"","type":"uint256","internalType":"uint256"}],"stateMutability":"view"},{"type":"function","name":"creator","inputs":[],"outputs":[{"name":"","type":"address","internalType":"address"}],"stateMutability":"view"},{"type":"function","name":"end","inputs":[],"outputs":[],"stateMutability":"nonpayable"},{"type":"function","name":"lastPaymentTime","inputs":[],"outputs":[{"name":"","type":"uint256","internalType":"uint256"}],"stateMutability":"view"},{"type":"function","name":"pause","inputs":[],"outputs":[],"stateMutability":"nonpayable"},{"type":"function","name":"pay","inputs":[],"outputs":[],"stateMutability":"nonpayable"},{"type":"function","name":"paymentAmount","inputs":[],"outputs":[{"name":"","type":"uint256","internalType":"uint256"}],"stateMutability":"view"},{"type":"function","name":"resume","inputs":[],"outputs":[],"stateMutability":"nonpayable"},{"type":"function","name":"startTime","inputs":[],"outputs":[{"name":"","type":"uint256","internalType":"uint256"}],"stateMutability":"view"},{"type":"function","name":"state","inputs":[],"outputs":[{"name":"","type":"uint8","internalType":"enum CashflowSchedule.State"}],"stateMutability":"view"},{"type":"function","name":"vault","inputs":[],"outputs":[{"name":"","type":"address","internalType":"contract CashflowVault"}],"stateMutability":"view"},{"type":"event","name":"PaymentExecuted","inputs":[{"name":"creator","type":"address","indexed":true,"internalType":"address"},{"name":"paymentTime","type":"uint256","indexed":true,"internalType":"uint256"},{"name":"amount","type":"uint256","indexed":false,"internalType":"uint256"}],"anonymous":false},{"type":"event","name":"StateChanged","inputs":[{"name":"newState","type":"uint8","indexed":true,"internalType":"enum CashflowSchedule.State"}],"anonymous":false}],"bytecode":{"object":"0x610120604052348015610010575f80fd5b506040516109d63803806109d683398101604081905261002f91610183565b6001600160a01b0385166100795760405162461bcd60e51b815260206004820152600c60248201526b2d22a927afa1a922a0aa27a960a11b60448201526064015b60405180910390fd5b6001600160a01b0384166100bc5760405162461bcd60e51b815260206004820152600a60248201526916915493d7d59055531560b21b6044820152606401610070565b5f83116100fa5760405162461bcd60e51b815260206004820152600c60248201526b5a45524f5f434144454e434560a01b6044820152606401610070565b5f82116101385760405162461bcd60e51b815260206004820152600c60248201526b16915493d7d410565351539560a21b6044820152606401610070565b6001600160a01b039485166080529290931660a05260c05260e091909152610100525f805460ff191690556101cd565b80516001600160a01b038116811461017e575f80fd5b919050565b5f805f805f60a08688031215610197575f80fd5b6101a086610168565b94506101ae60208701610168565b6040870151606088015160809098015196999198509695945092505050565b60805160a05160c05160e051610100516107806102565f395f81816101050152818161032701526103c201525f818161018201528181610463015261052e01525f8181610142015261038f01525f81816101ba015261048901525f818160af015281816101e70152818161043b015281816104e301528181610572015261062001526107805ff3fe608060405234801561000f575f80fd5b50600436106100a6575f3560e01c8063ad94bd1b1161006e578063ad94bd1b1461013d578063c19d93fb14610164578063c35905c61461017d578063dfe607f9146101a4578063efbe1c1c146101ad578063fbfa77cf146101b5575f80fd5b806302d05d3f146100aa578063046f7da2146100ee5780631b9265b8146100f857806378e97925146101005780638456cb5914610135575b5f80fd5b6100d17f000000000000000000000000000000000000000000000000000000000000000081565b6040516001600160a01b0390911681526020015b60405180910390f35b6100f66101dc565b005b6100f66102d4565b6101277f000000000000000000000000000000000000000000000000000000000000000081565b6040519081526020016100e5565b6100f6610567565b6101277f000000000000000000000000000000000000000000000000000000000000000081565b5f546101709060ff1681565b6040516100e591906106d9565b6101277f000000000000000000000000000000000000000000000000000000000000000081565b61012760015481565b6100f6610615565b6100d17f000000000000000000000000000000000000000000000000000000000000000081565b336001600160a01b037f0000000000000000000000000000000000000000000000000000000000000000161461022d5760405162461bcd60e51b8152600401610224906106ff565b60405180910390fd5b60015f5460ff166002811115610245576102456106c5565b146102825760405162461bcd60e51b815260206004820152600d60248201526c494e56414c49445f535441544560981b6044820152606401610224565b5f8054819060ff19166001825b02179055505f5460ff1660028111156102aa576102aa6106c5565b6040517f551dc40198cc79684bb69e4931dba4ac16e4598792ee1c0a5000aeea366d7bb6905f90a2565b5f805460ff1660028111156102eb576102eb6106c5565b146103255760405162461bcd60e51b815260206004820152600a6024820152694e4f545f41435449564560b01b6044820152606401610224565b7f00000000000000000000000000000000000000000000000000000000000000004210156103835760405162461bcd60e51b815260206004820152600b60248201526a1393d517d4d5105495115160aa1b6044820152606401610224565b5f6001545f146103c0577f00000000000000000000000000000000000000000000000000000000000000006001546103bb9190610725565b6103e2565b7f00000000000000000000000000000000000000000000000000000000000000005b9050804210156104205760405162461bcd60e51b8152602060048201526009602482015268544f4f5f4541524c5960b81b6044820152606401610224565b42600155604051636b6d56ef60e11b81526001600160a01b037f0000000000000000000000000000000000000000000000000000000000000000811660048301527f000000000000000000000000000000000000000000000000000000000000000060248301527f0000000000000000000000000000000000000000000000000000000000000000169063d6daadde906044015f604051808303815f87803b1580156104ca575f80fd5b505af11580156104dc573d5f803e3d5ffd5b50505050427f00000000000000000000000000000000000000000000000000000000000000006001600160a01b03167ff739196b4faced115dfba9193bc3101a37bfa287ed2ce069e4253592a4daca0e7f000000000000000000000000000000000000000000000000000000000000000060405161055c91815260200190565b60405180910390a350565b336001600160a01b037f000000000000000000000000000000000000000000000000000000000000000016146105af5760405162461bcd60e51b8152600401610224906106ff565b5f805460ff1660028111156105c6576105c66106c5565b146106035760405162461bcd60e51b815260206004820152600d60248201526c494e56414c49445f535441544560981b6044820152606401610224565b5f80546001919060ff1916828061028f565b336001600160a01b037f0000000000000000000000000000000000000000000000000000000000000000161461065d5760405162461bcd60e51b8152600401610224906106ff565b60025f5460ff166002811115610675576106756106c5565b036106b25760405162461bcd60e51b815260206004820152600d60248201526c1053149150511657d153911151609a1b6044820152606401610224565b5f80546002919060ff191660018361028f565b634e487b7160e01b5f52602160045260245ffd5b60208101600383106106f957634e487b7160e01b5f52602160045260245ffd5b91905290565b6020808252600c908201526b27a7262cafa1a922a0aa27a960a11b604082015260600190565b8082018082111561074457634e487b7160e01b5f52601160045260245ffd5b9291505056fea2646970667358221220f3b19a7dec5d6ac4ffcb45c030d00dca10b007d3e8f3b80ed130c6f9cfc2717b64736f6c63430008180033","linkReferences":{}},"methodIdentifiers":{"cadence()":"ad94bd1b","creator()":"02d05d3f","end()":"efbe1c1c","lastPaymentTime()":"dfe607f9","pause()":"8456cb59","pay()":"1b9265b8","paymentAmount()":"c35905c6","resume()":"046f7da2","startTime()":"78e97925","state()":"c19d93fb","vault()":"fbfa77cf"},"id":21}