{"abi":[{"type":"constructor","inputs":[{"name":"asset_","type":"address","internalType":"address"}],"stateMutability":"nonpayable"},{"type":"function","name":"admin","inputs":[],"outputs":[{"name":"","type":"address","internalType":"address"}],"stateMutability":"view"},{"type":"function","name":"allowance","inputs":[{"name":"","type":"address","internalType":"address"},{"name":"","type":"address","internalType":"address"}],"outputs":[{"name":"","type":"uint256","internalType":"uint256"}],"stateMutability":"view"},{"type":"function","name":"approve","inputs":[{"name":"spender","type":"address","internalType":"address"},{"name":"amount","type":"uint256","internalType":"uint256"}],"outputs":[{"name":"","type":"bool","internalType":"bool"}],"stateMutability":"nonpayable"},{"type":"function","name":"asset","inputs":[],"outputs":[{"name":"","type":"address","internalType":"contract MockUSDC"}],"stateMutability":"view"},{"type":"function","name":"balanceOf","inputs":[{"name":"","type":"address","internalType":"address"}],"outputs":[{"name":"","type":"uint256","internalType":"uint256"}],"stateMutability":"view"},{"type":"function","name":"convertToAssets","inputs":[{"name":"shares","type":"uint256","internalType":"uint256"}],"outputs":[{"name":"assets","type":"uint256","internalType":"uint256"}],"stateMutability":"view"},{"type":"function","name":"convertToShares","inputs":[{"name":"assets","type":"uint256","internalType":"uint256"}],"outputs":[{"name":"shares","type":"uint256","internalType":"uint256"}],"stateMutability":"view"},{"type":"function","name":"decimals","inputs":[],"outputs":[{"name":"","type":"uint8","internalType":"uint8"}],"stateMutability":"view"},{"type":"function","name":"deposit","inputs":[{"name":"assets","type":"uint256","internalType":"uint256"},{"name":"receiver","type":"address","internalType":"address"}],"outputs":[{"name":"shares","type":"uint256","internalType":"uint256"}],"stateMutability":"nonpayable"},{"type":"function","name":"mint","inputs":[{"name":"shares","type":"uint256","internalType":"uint256"},{"name":"receiver","type":"address","internalType":"address"}],"outputs":[{"name":"assets","type":"uint256","internalType":"uint256"}],"stateMutability":"nonpayable"},{"type":"function","name":"name","inputs":[],"outputs":[{"name":"","type":"string","internalType":"string"}],"stateMutability":"view"},{"type":"function","name":"previewDeposit","inputs":[{"name":"assets","type":"uint256","internalType":"uint256"}],"outputs":[{"name":"shares","type":"uint256","internalType":"uint256"}],"stateMutability":"view"},{"type":"function","name":"previewMint","inputs":[{"name":"shares","type":"uint256","internalType":"uint256"}],"outputs":[{"name":"assets","type":"uint256","internalType":"uint256"}],"stateMutability":"view"},{"type":"function","name":"previewRedeem","inputs":[{"name":"shares","type":"uint256","internalType":"uint256"}],"outputs":[{"name":"assets","type":"uint256","internalType":"uint256"}],"stateMutability":"view"},{"type":"function","name":"previewWithdraw","inputs":[{"name":"assets","type":"uint256","internalType":"uint256"}],"outputs":[{"name":"shares","type":"uint256","internalType":"uint256"}],"stateMutability":"view"},{"type":"function","name":"recordCashflowPayment","inputs":[{"name":"payer","type":"address","internalType":"address"},{"name":"assets","type":"uint256","internalType":"uint256"}],"outputs":[],"stateMutability":"nonpayable"},{"type":"function","name":"redeem","inputs":[{"name":"shares","type":"uint256","internalType":"uint256"},{"name":"receiver","type":"address","internalType":"address"},{"name":"owner","type":"address","internalType":"address"}],"outputs":[{"name":"assets","type":"uint256","internalType":"uint256"}],"stateMutability":"nonpayable"},{"type":"function","name":"schedule","inputs":[],"outputs":[{"name":"","type":"address","internalType":"address"}],"stateMutability":"view"},{"type":"function","name":"setSchedule","inputs":[{"name":"schedule_","type":"address","internalType":"address"}],"outputs":[],"stateMutability":"nonpayable"},{"type":"function","name":"symbol","inputs":[],"outputs":[{"name":"","type":"string","internalType":"string"}],"stateMutability":"view"},{"type":"function","name":"totalAssets","inputs":[],"outputs":[{"name":"","type":"uint256","internalType":"uint256"}],"stateMutability":"view"},{"type":"function","name":"totalSupply","inputs":[],"outputs":[{"name":"","type":"uint256","internalType":"uint256"}],"stateMutability":"view"},{"type":"function","name":"transfer","inputs":[{"name":"to","type":"address","internalType":"address"},{"name":"amount","type":"uint256","internalType":"uint256"}],"outputs":[{"name":"","type":"bool","internalType":"bool"}],"stateMutability":"nonpayable"},{"type":"function","name":"transferFrom","inputs":[{"name":"from","type":"address","internalType":"address"},{"name":"to","type":"address","internalType":"address"},{"name":"amount","type":"uint256","internalType":"uint256"}],"outputs":[{"name":"","type":"bool","internalType":"bool"}],"stateMutability":"nonpayable"},{"type":"function","name":"withdraw","inputs":[{"name":"assets","type":"uint256","internalType":"uint256"},{"name":"receiver","type":"address","internalType":"address"},{"name":"owner","type":"address","internalType":"address"}],"outputs":[{"name":"shares","type":"uint256","internalType":"uint256"}],"stateMutability":"nonpayable"},{"type":"event","name":"Approval","inputs":[{"name":"owner","type":"address","indexed":true,"internalType":"address"},{"name":"spender","type":"address","indexed":true,"internalType":"address"},{"name":"value","type":"uint256","indexed":false,"internalType":"uint256"}],"anonymous":false},{"type":"event","name":"CashflowPaymentRecorded","inputs":[{"name":"payer","type":"address","indexed":true,"internalType":"address"},{"name":"assets","type":"uint256","indexed":false,"internalType":"uint256"}],"anonymous":false},{"type":"event","name":"Deposit","inputs":[{"name":"caller","type":"address","indexed":true,"internalType":"address"},{"name":"receiver","type":"address","indexed":true,"internalType":"address"},{"name":"assets","type":"uint256","indexed":false,"internalType":"uint256"},{"name":"shares","type":"uint256","indexed":false,"internalType":"uint256"}],"anonymous":false},{"type":"event","name":"Transfer","inputs":[{"name":"from","type":"address","indexed":true,"internalType":"address"},{"name":"to","type":"address","indexed":true,"internalType":"address"},{"name":"value","type":"uint256","indexed":false,"internalType":"uint256"}],"anonymous":false},{"type":"event","name":"Withdraw","inputs":[{"name":"caller","type":"address","indexed":true,"internalType":"address"},{"name":"receiver","type":"address","indexed":true,"internalType":"address"},{"name":"owner","type":"address","indexed":true,"internalType":"address"},{"name":"assets","type":"uint256","indexed":false,"internalType":"uint256"},{"name":"shares","type":"uint256","indexed":false,"internalType":"uint256"}],"anonymous":false}],"bytecode":{"object":"0x60c060405234801561000f575f80fd5b5060405161157438038061157483398101604081905261002e9161008a565b6001600160a01b0381166100755760405162461bcd60e51b815260206004820152600a60248201526916915493d7d054d4d15560b21b604482015260640160405180910390fd5b6001600160a01b03166080523360a0526100b7565b5f6020828403121561009a575f80fd5b81516001600160a01b03811681146100b0575f80fd5b9392505050565b60805160a05161146b6101095f395f81816103e301526104d301525f81816102650152818161041c0152818161074701528181610879015281816109f101528181610b300152610cc4015261146b5ff3fe608060405234801561000f575f80fd5b506004361061016d575f3560e01c806370a08231116100d9578063b460af9411610093578063d6daadde1161006e578063d6daadde1461038e578063dd62ed3e146103a1578063ef8b30f7146103cb578063f851a440146103de575f80fd5b8063b460af9414610355578063ba08765214610368578063c6e6f5921461037b575f80fd5b806370a08231146102c557806394bf804d146102e457806395d89b41146102f7578063a9059cbb1461031d578063b0604a2614610330578063b3d7f6b914610342575f80fd5b806318160ddd1161012a57806318160ddd1461022a57806323b872dd14610233578063313ce5671461024657806338d52e0f146102605780634cdad5061461029f5780636e553f65146102b2575f80fd5b806301e1d1141461017157806306fdde031461018c57806307a2d13a146101cc578063093d5bda146101df578063095ea7b3146101f45780630a28a47714610217575b5f80fd5b610179610405565b6040519081526020015b60405180910390f35b6101bf6040518060400160405280601481526020017343617368666c6f77205661756c7420536861726560601b81525081565b6040516101839190611199565b6101796101da3660046111e5565b610492565b6101f26101ed366004611217565b6104c8565b005b610207610202366004611230565b6105e8565b6040519015158152602001610183565b6101796102253660046111e5565b610654565b61017960015481565b610207610241366004611258565b6106a6565b61024e600681565b60405160ff9091168152602001610183565b6102877f000000000000000000000000000000000000000000000000000000000000000081565b6040516001600160a01b039091168152602001610183565b6101796102ad3660046111e5565b6106c7565b6101796102c0366004611291565b6106d1565b6101796102d3366004611217565b60026020525f908152604090205481565b6101796102f2366004611291565b610822565b6101bf604051806040016040528060078152602001664356534841524560c81b81525081565b61020761032b366004611230565b61094a565b5f54610287906001600160a01b031681565b6101796103503660046111e5565b61095f565b6101796103633660046112bb565b61098b565b6101796103763660046112bb565b610aca565b6101796103893660046111e5565b610bfe565b6101f261039c366004611230565b610c1b565b6101796103af3660046112f4565b600360209081525f928352604080842090915290825290205481565b6101796103d93660046111e5565b610d91565b6102877f000000000000000000000000000000000000000000000000000000000000000081565b6040516370a0823160e01b81523060048201525f907f00000000000000000000000000000000000000000000000000000000000000006001600160a01b0316906370a0823190602401602060405180830381865afa158015610469573d5f803e3d5ffd5b505050506040513d601f19601f8201168201806040525081019061048d919061131c565b905090565b6001545f9080156104bf57806104a6610405565b6104b09085611347565b6104ba919061135e565b6104c1565b825b9392505050565b336001600160a01b037f000000000000000000000000000000000000000000000000000000000000000016146105325760405162461bcd60e51b815260206004820152600a60248201526927a7262cafa0a226a4a760b11b60448201526064015b60405180910390fd5b5f546001600160a01b0316156105815760405162461bcd60e51b815260206004820152601460248201527314d0d2115115531157d053149150511657d4d15560621b6044820152606401610529565b6001600160a01b0381166105c75760405162461bcd60e51b815260206004820152600d60248201526c5a45524f5f5343484544554c4560981b6044820152606401610529565b5f80546001600160a01b0319166001600160a01b0392909216919091179055565b335f8181526003602090815260408083206001600160a01b038716808552925280832085905551919290917f8c5be1e5ebec7d5bd14f71427d1e84f3dd0314c0f7b2291e5b200ac8c7c3b925906106429086815260200190565b60405180910390a35060015b92915050565b6001545f90808203610667575090919050565b5f610670610405565b9050806001816106808588611347565b61068a919061137d565b6106949190611390565b61069e919061135e565b949350505050565b5f6106b2843384610d9b565b6106bd848484610e9f565b5060019392505050565b5f61064e82610492565b5f8083116106f15760405162461bcd60e51b8152600401610529906113a3565b6106fa83610bfe565b90505f811161071b5760405162461bcd60e51b8152600401610529906113c8565b6107258282610fee565b6040516323b872dd60e01b8152336004820152306024820152604481018490527f00000000000000000000000000000000000000000000000000000000000000006001600160a01b0316906323b872dd906064016020604051808303815f875af1158015610795573d5f803e3d5ffd5b505050506040513d601f19601f820116820180604052508101906107b991906113ed565b6107d55760405162461bcd60e51b81526004016105299061140c565b60408051848152602081018390526001600160a01b0384169133917fdcbc1c05240f31ff3ad067ef1ee35ce4997762752e3a095284754544f4c709d791015b60405180910390a392915050565b5f8083116108425760405162461bcd60e51b8152600401610529906113c8565b61084b8361095f565b90506108578284610fee565b6040516323b872dd60e01b8152336004820152306024820152604481018290527f00000000000000000000000000000000000000000000000000000000000000006001600160a01b0316906323b872dd906064016020604051808303815f875af11580156108c7573d5f803e3d5ffd5b505050506040513d601f19601f820116820180604052508101906108eb91906113ed565b6109075760405162461bcd60e51b81526004016105299061140c565b60408051828152602081018590526001600160a01b0384169133917fdcbc1c05240f31ff3ad067ef1ee35ce4997762752e3a095284754544f4c709d79101610814565b5f610956338484610e9f565b50600192915050565b6001545f90808203610972575090919050565b5f61097b610405565b9050816001816106808488611347565b5f8084116109ab5760405162461bcd60e51b8152600401610529906113a3565b6109b484610654565b90506109c1823383610d9b565b6109cb82826110bb565b60405163a9059cbb60e01b81526001600160a01b038481166004830152602482018690527f0000000000000000000000000000000000000000000000000000000000000000169063a9059cbb906044016020604051808303815f875af1158015610a37573d5f803e3d5ffd5b505050506040513d601f19601f82011682018060405250810190610a5b91906113ed565b610a775760405162461bcd60e51b81526004016105299061140c565b60408051858152602081018390526001600160a01b03808516929086169133917ffbde797d201c681b91056529119e0b02407c7bb96a4a2c75c01fc9667232c8db91015b60405180910390a49392505050565b5f808411610aea5760405162461bcd60e51b8152600401610529906113c8565b610af384610492565b9050610b00823386610d9b565b610b0a82856110bb565b60405163a9059cbb60e01b81526001600160a01b038481166004830152602482018390527f0000000000000000000000000000000000000000000000000000000000000000169063a9059cbb906044016020604051808303815f875af1158015610b76573d5f803e3d5ffd5b505050506040513d601f19601f82011682018060405250810190610b9a91906113ed565b610bb65760405162461bcd60e51b81526004016105299061140c565b60408051828152602081018690526001600160a01b03808516929086169133917ffbde797d201c681b91056529119e0b02407c7bb96a4a2c75c01fc9667232c8db9101610abb565b6001545f9080156104bf57610c11610405565b6104b08285611347565b5f546001600160a01b031633148015610c3d57505f546001600160a01b031615155b610c795760405162461bcd60e51b815260206004820152600d60248201526c4f4e4c595f5343484544554c4560981b6044820152606401610529565b5f8111610c985760405162461bcd60e51b8152600401610529906113a3565b6040516323b872dd60e01b81526001600160a01b038381166004830152306024830152604482018390527f000000000000000000000000000000000000000000000000000000000000000016906323b872dd906064016020604051808303815f875af1158015610d0a573d5f803e3d5ffd5b505050506040513d601f19601f82011682018060405250810190610d2e91906113ed565b610d4a5760405162461bcd60e51b81526004016105299061140c565b816001600160a01b03167fadb9e3986da7f2b83521b86ce5596562ec7c902cca4c5c18f6d174bfbf38905e82604051610d8591815260200190565b60405180910390a25050565b5f61064e82610bfe565b816001600160a01b0316836001600160a01b031603610db957505050565b6001600160a01b038084165f908152600360209081526040808320938616835292905220545f198114610e995781811015610e2f5760405162461bcd60e51b8152602060048201526016602482015275494e53554646494349454e545f414c4c4f57414e434560501b6044820152606401610529565b610e398282611390565b6001600160a01b038581165f818152600360209081526040808320948916808452948252918290208590559051938452919290917f8c5be1e5ebec7d5bd14f71427d1e84f3dd0314c0f7b2291e5b200ac8c7c3b925910160405180910390a35b50505050565b6001600160a01b038216610ee55760405162461bcd60e51b815260206004820152600d60248201526c2d22a927afa922a1a2a4ab22a960991b6044820152606401610529565b6001600160a01b0383165f90815260026020526040902054811115610f425760405162461bcd60e51b8152602060048201526013602482015272494e53554646494349454e545f53484152455360681b6044820152606401610529565b6001600160a01b0383165f9081526002602052604081208054839290610f69908490611390565b90915550506001600160a01b0382165f9081526002602052604081208054839290610f9590849061137d565b92505081905550816001600160a01b0316836001600160a01b03167fddf252ad1be2c89b69c2b068fc378daa952ba7f163c4a11628f55a4df523b3ef83604051610fe191815260200190565b60405180910390a3505050565b6001600160a01b0382166110345760405162461bcd60e51b815260206004820152600d60248201526c2d22a927afa922a1a2a4ab22a960991b6044820152606401610529565b8060015f828254611045919061137d565b90915550506001600160a01b0382165f908152600260205260408120805483929061107190849061137d565b90915550506040518181526001600160a01b038316905f907fddf252ad1be2c89b69c2b068fc378daa952ba7f163c4a11628f55a4df523b3ef906020015b60405180910390a35050565b6001600160a01b0382165f908152600260205260409020548111156111185760405162461bcd60e51b8152602060048201526013602482015272494e53554646494349454e545f53484152455360681b6044820152606401610529565b6001600160a01b0382165f908152600260205260408120805483929061113f908490611390565b925050819055508060015f8282546111579190611390565b90915550506040518181525f906001600160a01b038416907fddf252ad1be2c89b69c2b068fc378daa952ba7f163c4a11628f55a4df523b3ef906020016110af565b5f602080835283518060208501525f5b818110156111c5578581018301518582016040015282016111a9565b505f604082860101526040601f19601f8301168501019250505092915050565b5f602082840312156111f5575f80fd5b5035919050565b80356001600160a01b0381168114611212575f80fd5b919050565b5f60208284031215611227575f80fd5b6104c1826111fc565b5f8060408385031215611241575f80fd5b61124a836111fc565b946020939093013593505050565b5f805f6060848603121561126a575f80fd5b611273846111fc565b9250611281602085016111fc565b9150604084013590509250925092565b5f80604083850312156112a2575f80fd5b823591506112b2602084016111fc565b90509250929050565b5f805f606084860312156112cd575f80fd5b833592506112dd602085016111fc565b91506112eb604085016111fc565b90509250925092565b5f8060408385031215611305575f80fd5b61130e836111fc565b91506112b2602084016111fc565b5f6020828403121561132c575f80fd5b5051919050565b634e487b7160e01b5f52601160045260245ffd5b808202811582820484141761064e5761064e611333565b5f8261137857634e487b7160e01b5f52601260045260245ffd5b500490565b8082018082111561064e5761064e611333565b8181038181111561064e5761064e611333565b6020808252600b908201526a5a45524f5f41535345545360a81b604082015260600190565b6020808252600b908201526a5a45524f5f53484152455360a81b604082015260600190565b5f602082840312156113fd575f80fd5b815180151581146104c1575f80fd5b6020808252600f908201526e1514905394d1915497d19052531151608a1b60408201526060019056fea26469706673582212207d186e3b5b8e164f80f7ba5b2af2d5477e565ed9bf988e77cc65a74e5ce19dd664736f6c63430008180033","linkReferences":{}},"methodIdentifiers":{"admin()":"f851a440","allowance(address,address)":"dd62ed3e","approve(address,uint256)":"095ea7b3","asset()":"38d52e0f","balanceOf(address)":"70a08231","convertToAssets(uint256)":"07a2d13a","convertToShares(uint256)":"c6e6f592","decimals()":"313ce567","deposit(uint256,address)":"6e553f65","mint(uint256,address)":"94bf804d","name()":"06fdde03","previewDeposit(uint256)":"ef8b30f7","previewMint(uint256)":"b3d7f6b9","previewRedeem(uint256)":"4cdad506","previewWithdraw(uint256)":"0a28a477","recordCashflowPayment(address,uint256)":"d6daadde","redeem(uint256,address,address)":"ba087652","schedule()":"b0604a26","setSchedule(address)":"093d5bda","symbol()":"95d89b41","totalAssets()":"01e1d114","totalSupply()":"18160ddd","transfer(address,uint256)":"a9059cbb","transferFrom(address,address,uint256)":"23b872dd","withdraw(uint256,address,address)":"b460af94"},"id":23}